:100000000EC01DC01CC01BC01AC019C018C017C02C
:1000100016C015C014C013C012C011C010C01124E6
:100020001FBECFE5D2E0DEBFCDBF20E0A0E6B0E04E
:1000300001C01D92A636B207E1F702D072C0E0CF30
:1000400080E886BD16BCB89A80E18093610010926A
:10005000600010926200809364008093630080933C
:100060006500D1E0C0E010E01C1739F063E070E0FB
:1000700080E690E054D01F5FF7CF10E0212F30E0F2
:1000800080E190E08C1B9109281739073CF463E06C
:1000900070E083E690E043D01F5FF0CF2FEF80E762
:1000A00092E0215080409040E1F700C00000CD0F69
:1000B0008C2F8F7EC1F6D195D6CF38B3242F2095C3
:1000C000232338B3342B4FB7F894FC01680F791F02
:1000D000E617F70789F0819198E038BB000000C06F
:1000E00087FF28BB880F000000C000C000C028BBED
:1000F00000C09A9591F7ECCF4FBF0895B99A9B0134
:10010000220F331F260F371FB901D7DF87EC90E08E
:100110000197F1F700C00000089542E0EFCF42E000
:06012000CCCFF894FFCFE4
:00000001FF
