:100000000EC01DC01CC01BC01AC019C018C017C02C
:1000100016C015C014C013C012C011C010C01124E6
:100020001FBECFE5D2E0DEBFCDBF20E0A0E6B0E04E
:1000300001C01D92A336B207E1F702D078C0E0CF2D
:1000400080E886BD16BC8FEF80936100109260003F
:100050001092620061E070E080E690E064D02FEFE3
:1000600089E698E1215080409040E1F700C000000F
:10007000109261008FEF809360001092620061E047
:1000800070E080E690E04FD02FEF89E698E12150B4
:1000900080409040E1F700C0000010926100109293
:1000A00060008FEF8093620061E070E080E690E096
:1000B0003AD02FEF89E698E1215080409040E1F757
:1000C00000C00000C0CF38B3242F2095232338B3BD
:1000D000342B4FB7F894FC01680F791FE617F70728
:1000E00089F0819198E038BB000000C087FF28BBF1
:1000F000880F000000C000C000C028BB00C09A9557
:1001000091F7ECCF4FBF0895B99A9B01220F331F8F
:10011000260F371FB901D7DF87EC90E00197F1F781
:1001200000C00000089542E0EFCF42E0CCCFF89449
:02013000FFCFFF
:00000001FF
