:100000000EC028C027C026C025C024C023C022C0DF
:1000100021C020C01FC01EC01DC01CC01BC0112499
:100020001FBECFE5D2E0DEBFCDBF10E0A0E6B0E05E
:10003000ECE1F1E002C005900D92A036B107D9F7CE
:1000400010E0A0E6B0E001C01D92A936B107E1F7CB
:100050001DD062C0D5CFFC0161157105B1F0819151
:1000600098E0C19A880F9A95000008F0C1980000A6
:10007000000008F4C19831F000000000000000000A
:100080000000EFCF6150704051F7089580E886BDC1
:1000900016BCB99ACFEFC0936100C0936000C093C3
:1000A0006200C09364001092630010926500109289
:1000B0006700C09366001092680080E690E069E0F7
:1000C00070E0C9DF8FEF94E3ACE081509040A04036
:1000D000E1F700C0000010926100C0936000C0937F
:1000E000620010926400C093630010926500109249
:1000F000670010926600C093680080E690E069E0B7
:1001000070E0A9DF8FEF94E3ACE081509040A04015
:0C011000E1F700C00000BFCFF894FFCF63
:00000001FF
